:020000040800F2
:100000000028002059140008CD130008D51300085B
:10001000DD130008E5130008ED13000800000000E0
:10002000000000000000000000000000F5130008C0
:1000300001140008000000000D1400081914000845
:10004000A1140008A1140008A1140008A1140008BC
:10005000A1140008A1140008A1140008A1140008AC
:10006000A1140008A1140008A1140008A11400089C
:10007000A1140008A1140008A1140008A11400088C
:10008000A1140008A1140008A1140008A11400087C
:10009000A1140008A1140008A1140008A11400086C
:1000A000A1140008A1140008A1140008A11400085C
:1000B00025140008A114000800000000A114000885
:1000C000A11400080000000000000000A1140008B6
:1000D00000000000A114000839140008000000000E
:1000E000A1140008A1140008A114000800000000D9
:1000F0000000000000000000000000000000000000
:0C01000000000000000000005FF808F1A3
:10010C0010B5054C237833B9044B13B10448AFF345
:10011C0000800123237010BD4C0000200000000063
:10012C003C40000808B5034B1BB103490348AFF32F
:10013C00008008BD00000000500000203C4000087A
:10014C0080B483B000AF7860094A7B6852F82330E2
:10015C00012B06D1064A7B68002142F823100123AB
:10016C0000E0002318460C37BD4680BC704700BF2A
:10017C006800002080B483B000AF7860094A7B68C7
:10018C0052F82330012B06D1064A7B68002142F835
:10019C002310012300E0002318460C37BD4680BC19
:1001AC00704700BF7000002080B582B000AF002304
:1001BC007B607BE0424A7B6852F8232041497B6894
:1001CC0041F82320404A7B6852F823203C497B6845
:1001DC0041F823204FF480713C4801F0FBFC0346AE
:1001EC001A46394B1A604FF40071384801F0F2FC92
:1001FC0003461A46344B5A60324A7B6852F8232025
:10020C002F497B6851F823309A424CD12C4A7B6899
:10021C0052F823202C497B6851F823309A4242D162
:10022C002B4A7B6852F8232027497B6851F82330EE
:10023C009A4218D0244A7B6852F8232024497B68C0
:10024C0041F82320224A7B6852F82330002B2AD114
:10025C00204A7B68C82142F823101F4A7B68012181
:10026C0042F823101FE01A4A7B6852F82330002B07
:10027C0019D1184A7B6852F82330002B09DD154A36
:10028C007B6852F823305A1E12497B6841F82320B0
:10029C0009E0124A7B68012142F823100D4A7B6861
:1002AC00C82142F823107B6801337B6002227B68F3
:1002BC009342FFF67FAF00BF00BF0837BD4680BD3D
:1002CC000800002000000020100000200008014061
:1002DC001800002020000020680000207000002082
:1002EC0080B500AF7A4B1B680D2B6BD801A252F86E
:1002FC0023F000BF39030008D1030008D103000824
:10030C00D1030008D1030008D1030008D103000871
:10031C00D1030008D1030008D1030008D103000861
:10032C0051030008B50300089903000800F046FBD0
:10033C00674B0B221A60674B1B68674A136000F00F
:10034C0027FC46E000F050FB634B1B68002B06D1EA
:10035C005F4B0D221A60614B1B685F4A13600020D3
:10036C00FFF708FF0346002B2ED000F027FB00F010
:10037C00BFFB574B15221A60594B15221A60564B6E
:10038C0064221A60574B01221A601DE000F058FBE2
:10039C00514B1B68002B19D14D4B0C221A60524B40
:1003AC001B684D4A136011E000F034FB4A4B1B688C
:1003BC00002B0DD1464B0B221A60464B1B68464A4C
:1003CC00136005E000BF04E000BF02E000BF00E0E6
:1003DC0000BF434B1B680D2B54D801A252F823F0DD
:1003EC0025040008910400089104000891040008F9
:1003FC00910400089104000891040008910400087D
:10040C009104000891040008910400083D040008C0
:10041C00750400085904000800F06AFB304B0D22EB
:10042C001A602E4B1B682F4A136000F0B1FB30E0B2
:10043C0000F01CFB2B4B1B68002B25D1284B0D22ED
:10044C001A60264B1B68274A13601DE000F03AFB2C
:10045C00244B1B68002B19D1214B0C221A60224B08
:10046C001B68204A136011E000F016FB1D4B1B6843
:10047C00002B0DD11A4B0B221A60164B1B68194A14
:10048C00136005E000BF04E000BF02E000BF00E025
:10049C0000BF0F4B1B680A3B092B08D80E4B1B687F
:1004AC00002B04DD0C4B1B68013B0B4A13600C4BFF
:1004BC001B680A3B092B08D80A4B1B68002B04DD70
:1004CC00084B1B68013B074A136000BF80BD00BF8F
:1004DC00840000202C0000208C0000203400002020
:1004EC0088000020900000203000002080B500AF74
:1004FC007C4B1B68153B032B00F2DB8001A252F8EE
:10050C0023F000BF2105000887050008F10500084D
:10051C005506000800F068FA00F0D4FA0020FFF746
:10052C0029FE0346012B03D06F4B1B68002B0DD10A
:10053C006E4B1B686C4A13606D4B1B686D4A1360E5
:10054C00684B0B221A606C4B0D221A600020FFF7CF
:10055C00F7FD0346012B40F0AE80624B16221A6069
:10056C00664B1A6813469B0013445B001A465E4B9D
:10057C001A60604B01221A609DE000F035FA00F021
:10058C008BFA0020FFF7F6FD0346012B03D0564BE8
:10059C001B68002B10D1554B1A68554B1B68D31A8E
:1005AC00514A1360564B1B68524A13604D4B0B2239
:1005BC001A60514B0C221A600020FFF7C1FD034654
:1005CC00012B7AD1474B17221A604C4B1A681346F1
:1005DC009B0013445B001A46434B1A60454B0122A7
:1005EC001A606AE000F02CFA00F040FA0020FFF7E5
:1005FC00C1FD0346012B03D03B4B1B68002B0DD1D7
:10060C003B4B1B68384A1360384B1B68394A1360E4
:10061C00344B0D221A60384B0B221A600020FFF766
:10062C008FFD0346012B4AD12E4B18221A60334BF7
:10063C001A6813469B0013445B001A462A4B1A6037
:10064C002C4B01221A603AE000F0E4F900F00EFAAB
:10065C000020FFF78FFD0346012B03D0224B1B68B4
:10066C00002B10D1264B1B681F4A13601F4B1A68B6
:10067C001F4B1B68D31A1F4A13601A4B0C221A60AB
:10068C001D4B0B221A600020FFF75AFD0346012B6D
:10069C0017D1144B15221A60184B1A6813469B007D
:1006AC0013445B001A46104B1A60124B01221A605D
:1006BC0007E000BF06E000BF04E000BF02E000BF9F
:1006CC0000E000BF074B1B68143B092B08D8064BF6
:1006DC001B68002B04DD044B1B68013B024A1360B2
:1006EC0000BF80BD840000208C0000202C00002066
:1006FC003400002090000020880000203C000020E6
:10070C003000002080B500AF9F4B1B681E3B092BAF
:10071C001CD90120FFF72EFD0346002B16D09B4B56
:10072C000A221A60984B1F221A60994B1F221A60DA
:10073C00984B02221A60984B1B68984A136000F081
:10074C003DF900F0D5F9964B01221A608E4B1B68CF
:10075C00212B00F0A880212B00F3FE801F2B02D050
:10076C00202B51D0F8E0894B1B68002B0BD1874B09
:10077C000A221A6020218B4801F05BFA4FF4806149
:10078C00884801F056FA0020FFF7DAFC0346002BEC
:10079C0010D0824B1B680A33804A13607F4B1B6856
:1007AC0040F2DE32934202DD7C4B0A221A607C4B13
:1007BC0001221A600120FFF7C3FC0346002B0AD06C
:1007CC00764B1B68784A1360704B1E221A6000F03F
:1007DC000BF900F04BF90120FFF7CCFC0346002B82
:1007EC0000F0BC80714B1B686C4A1360694B032290
:1007FC001A6000F0E3F800F07BF9634B20221A60DA
:10080C00674B01221A60A9E0604B1B68002B0AD1D0
:10081C005E4B0A221A600221624801F00AFA042196
:10082C00604801F006FA0020FFF78AFC0346002B13
:10083C0010D05A4B1B680A33584A1360574B1B682D
:10084C0040F2DE32934202DD544B0A221A60544BC2
:10085C0001221A600120FFF773FC0346002B0AD01B
:10086C004E4B1B68524A1360484B1E221A6000F014
:10087C00D1F800F011F90120FFF77CFC0346002BA6
:10088C006ED04A4B1B68454A1360424B04221A60D7
:10089C0000F094F800F02CF93B4B21221A60404BED
:1008AC0001221A605CE0394B1B68002B0AD1374BD4
:1008BC000A221A6008213B4801F0BBF91021394883
:1008CC0001F0B7F90020FFF73BFC0346002B10D0DA
:1008DC00324B1B680A33314A1360304B1B6840F2B1
:1008EC00DE32934202DD2D4B0A221A602C4B012280
:1008FC001A600120FFF73EFC0346002B1AD02D4B4B
:10090C001A682B4B1B681A44274B1B689A420BD155
:10091C00254B1B68204A1360264B1B68234A136027
:10092C00234B1B68244A1360174B00221A60184B88
:10093C0000221A600120FFF703FC0346002B11D0A4
:10094C00164B1B681A4A1360104B1E221A6000F0DB
:10095C0077F800F0B7F805E000BF04E000BF02E054
:10096C0000BF00E000BF084B1B681E3B092B08D8DA
:10097C00064B1B68002B04DD044B1B68013B034A30
:10098C00136000BF80BD00BF840000203800002031
:10099C00880000208C0000202C00002090000020FB
:1009AC0028000020000C01407800002030000020BE
:1009BC00800000207C0000203400002080B500AFB7
:1009CC0000222021074801F01CF9002208210548CB
:1009DC0001F017F900220221024801F012F900BFC0
:1009EC0080BD00BF000C014080B500AF012220216A
:1009FC00074801F006F900220821054801F001F929
:100A0C0000220221024801F0FCF800BF80BD00BFAB
:100A1C00000C014080B500AF00222021074801F0F6
:100A2C00F0F800220821054801F0EBF80122022120
:100A3C00024801F0E6F800BF80BD00BF000C014089
:100A4C0080B500AF00222021074801F0DAF801221E
:100A5C000821054801F0D5F800220221024801F0D6
:100A6C00D0F800BF80BD00BF000C014080B500AFC6
:100A7C0001224FF48061074801F0C3F800221021D5
:100A8C00044801F0BEF800220421024801F0B9F834
:100A9C0000BF80BD000C014080B500AF00224FF4B8
:100AAC008061074801F0ADF800221021044801F0E4
:100ABC00A8F801220421024801F0A3F800BF80BD70
:100ACC00000C014080B500AF00224FF48061074854
:100ADC0001F097F801221021044801F092F800224D
:100AEC000221024801F08DF800BF80BD000C0140CE
:100AFC0080B500AF00224FF48061074801F081F807
:100B0C0000221021044801F07CF800220421024844
:100B1C0001F077F800BF80BD000C014080B500AF3C
:100B2C00FFF7F0FDFFF7E2FCFFF7DAFB00BF80BD3B
:100B3C0080B586B002AF0346FB71FB7923F00F033F
:100B4C00FB73FB791B01BB73FB7B43F00C03DBB228
:100B5C003B72FB7B43F00803DBB27B72BB7B43F045
:100B6C000C03DBB2BB72BB7B43F00803DBB2FB7242
:100B7C0007F108026423009304234221034801F087
:100B8C00B5F900BF1037BD4680BD00BF94000020F2
:100B9C0080B500AF0120FFF7CBFF00BF80BD000088
:100BAC0080B500AF00F078FC00F022F800F000F9FE
:100BBC0000F088F800F0D2F800F056F8094802F07E
:100BCC004DF900F069F964220021074800F0A4F9FE
:100BDC0001222021054801F014F800F0ABFA00BF07
:100BEC00FBE700BFE8000020290B000800080140CB
:100BFC0080B590B000AF07F11803282200211846E9
:100C0C0003F0EAF93B1D00221A605A609A60DA6020
:100C1C001A610223BB610123BB621023FB62002318
:100C2C007B6307F11803184601F0B8FC0346002B50
:100C3C0001D000F02BF90F237B600023BB60002355
:100C4C00FB6000233B6100237B613B1D00211846A8
:100C5C0001F026FF0346002B01D000F017F900BF6E
:100C6C004037BD4680BD000080B500AF124B134A23
:100C7C001A60114B124A5A600F4B00229A600E4BAD
:100C8C000022DA600C4B4FF480421A610A4B0022AE
:100C9C005A61094B00229A61074B0022DA61064B1C
:100CAC0000221A62044800F0DDFF0346002B01D03D
:100CBC0000F0ECF800BF80BD940000200054004010
:100CCC00A086010080B586B000AF07F108030022B2
:100CDC001A605A609A60DA603B4600221A605A60C9
:100CEC001D4B4FF080421A601B4B41F63F725A600D
:100CFC00194B00229A60184B0922DA60164B00221D
:100D0C001A61154B00229A61134802F057F80346FA
:100D1C00002B01D000F0BAF84FF48053BB6007F100
:100D2C00080319460C4802F0D5F90346002B01D0F4
:100D3C0000F0ACF800233B6000237B603B46194677
:100D4C00054802F0ADFB0346002B01D000F09EF8E5
:100D5C0000BF1837BD4680BDE800002080B500AF4D
:100D6C00114B124A1A60104B4FF4E1325A600E4B81
:100D7C0000229A600C4B0022DA600B4B00221A61A5
:100D8C00094B0C225A61084B00229A61064B002237
:100D9C00DA61054802F0EEFB0346002B01D000F0AF
:100DAC0075F800BF80BD00BF30010020004400403A
:100DBC0080B586B000AF07F1080300221A605A60B4
:100DCC009A60DA60284B9B69274A43F004039361CD
:100DDC00254B9B6903F004037B607B68224B9B696A
:100DEC00214A43F0080393611F4B9B6903F00803EE
:100DFC003B603B68002220211C4800F002FF0022CF
:100E0C0040F23E411A4800F0FCFE2023BB60012357
:100E1C00FB6000233B6102237B6107F10803194649
:100E2C00124800F05BFD40F23E43BB600123FB60C7
:100E3C0000233B6102237B6107F1080319460C4830
:100E4C0000F04CFD4FF44073BB600023FB600123AA
:100E5C003B6107F108031946044800F03FFD00BF51
:100E6C001837BD4680BD00BF00100240000801408D
:100E7C00000C014080B582B000AF786000F0D6F86D
:100E8C00FFF792F900BF0837BD4680BD80B400AFB4
:100E9C0072B600BF00BFFDE780B483B000AF002383
:100EAC007B6024E0194A7B681B01134400221A6002
:100EBC00164A7B681B011344043300221A60134A40
:100ECC007B681B011344083300221A600F4A7B68AD
:100EDC001B0113440C3300221A700C4A7B681B0153
:100EEC0013440D3300221A707B6801337B607B68DE
:100EFC00042BD7DD064B00221A70054B1A78054BD4
:100F0C001A7000BF0C37BD4680BC704778010020BA
:100F1C00C9010020C801002080B487B000AFF86080
:100F2C00B9607A603C4B1B78591C3C4B83FB01230A
:100F3C005A10CB17D21A13469B001344CA1A384BBB
:100F4C001B789A4260D0364B1B787B6114E0354A93
:100F5C007B691B0113441B68FA689A4256D07B6963
:100F6C005A1C2E4B83FB02135910D317C91A0B466C
:100F7C009B000B44D31A7B61274B1B781A467B6969
:100F8C009342E4D1244B1B78264A1B011344FA6884
:100F9C001A60214B1B781846BB68234AA2FB03231B
:100FAC00DA08204903010B4404331A601A4B1B78EE
:100FBC0018467B681C4AA2FB0323DA081949030173
:100FCC000B4408331A60144B1B78164A1B0113444C
:100FDC000D3301221A70104B1B78124A1B0113445B
:100FEC000C3300221A700C4B1B785A1C0B4B83FBD6
:100FFC0002135910D317C91A0B469B000B44D11A74
:10100C00CAB2054B1A7002E000BF00E000BF1C37EB
:10101C00BD4680BC704700BFC9010020676666668C
:10102C00C801002078010020CDCCCCCC90B400AF0E
:10103C003C4B1A783C4B1B789A426FD0394B1B783F
:10104C003A4A1B0113440D331B78012B66D1354BE7
:10105C001B78364A1B01134404331B68002B0DD03C
:10106C00304B1B7831491A010A4404321268013A98
:10107C002E491B010B4404331A604FE0294B1B789B
:10108C002A4A1B0113440C3301221A70254B1B787E
:10109C00264A1B01134408331B68002B2ED0214B0E
:1010AC001B7819461F4B1B781846204A0B0113441A
:1010BC0008331A681D4903010B4404331A60194B99
:1010CC001B781846184B1B78184A1B01D118174A65
:1010DC00030113440C460FCB84E80F00124B1B7812
:1010EC005A1C134B83FB02135910D317C91A0B4606
:1010FC009B000B44D11ACAB20B4B1A70094B1B78CC
:10110C005A1C0B4B83FB02135910D317C91A0B46ED
:10111C009B000B44D11ACAB2024B1A7000BFBD46D9
:10112C0090BC7047C8010020C90100207801002044
:10113C006766666680B500AF204B1B78204A1B01A2
:10114C0013440C331B78002B36D01C4B1A781D4BD8
:10115C001B789A4230D0194B1B78194A1B01134447
:10116C000D331B78012B27D1144B1B78144A1B0110
:10117C0013440C3300221A70104B1B78104A1B01BD
:10118C0013441B6898470D4B1B780D4A1B011344E5
:10119C0008331B68002B0FD1084B1B785A1C0A4BC9
:1011AC0083FB02135910D317C91A0B469B000B442F
:1011BC00D11ACAB2014B1A7000BF80BDC801002001
:1011CC0078010020C90100206766666680B485B08E
:1011DC0000AF154B9B69144A43F001039361124B0A
:1011EC009B6903F00103BB60BB680F4BDB690E4AC4
:1011FC0043F08053D3610C4BDB6903F080537B606D
:10120C007B680A4B5B68FB60FB6823F0E063FB6068
:10121C00FB6843F08063FB60044AFB68536000BFCB
:10122C001437BD4680BC70470010024000000140DE
:10123C0080B58AB000AF786007F1140300221A6001
:10124C005A609A60DA607B681B681E4A934234D1FC
:10125C001D4B9B691C4A43F0080393611A4B9B6915
:10126C0003F008033B613B694FF440737B6112232D
:10127C00BB610023FB6103233B6207F11403194696
:10128C00124800F02BFB124B5B687B627B6A43F0CD
:10129C00E0637B627B6A43F002037B620C4A7B6AED
:1012AC005360094BDB69084A43F40013D361064BC6
:1012BC00DB6903F40013FB60FB6800BF2837BD46F5
:1012CC0080BD00BF0054004000100240000C0140E3
:1012DC000000014080B584B000AF78607B681B686B
:1012EC00B3F1804F13D10C4BDB690B4A43F0010374
:1012FC00D361094BDB6903F00103FB60FB6800223F
:10130C0000211C2000F001FA1C2000F01AFA00BF8A
:10131C001037BD4680BD00BF0010024080B588B0BC
:10132C0000AF786007F1100300221A605A609A60CF
:10133C00DA607B681B681F4A934237D11E4BDB690E
:10134C001D4A43F40033D3611B4BDB6903F40033B8
:10135C00FB60FB68184B9B69174A43F004039361CD
:10136C00154B9B6903F00403BB60BB6804233B6112
:10137C0002237B610323FB6107F1100319460F481D
:10138C0000F0ACFA08233B6100237B610023BB61B6
:10139C0007F110031946094800F0A0FA00220021B9
:1013AC00262000F0B2F9262000F0CBF900BF203740
:1013BC00BD4680BD004400400010024000080140C2
:1013CC0080B400AF00BFFDE780B400AF00BFFDE705
:1013DC0080B400AF00BFFDE780B400AF00BFFDE7F5
:1013EC0080B400AF00BFFDE780B400AF00BFBD46C6
:1013FC0080BC704780B400AF00BFBD4680BC704756
:10140C0080B400AF00BFBD4680BC704780B500AF54
:10141C0000F088F800BF80BD80B500AF024801F035
:10142C0069FD00BF80BD00BFE800002080B500AFA3
:10143C00024802F0EFF800BF80BD00BF3001002071
:10144C0080B400AF00BFBD4680BC7047FFF7F8FF0B
:10145C000B480C490C4A002302E0D458C450043306
:10146C00C4188C42F9D3094A094C002301E01360DB
:10147C000432A242FBD302F0B7FDFFF791FB704799
:10148C00000000204C000020884000084C00002088
:10149C00D0010020FEE7000080B500AF084B1B68B0
:1014AC00074A43F010031360032000F023F90F20C8
:1014BC0000F008F8FFF78AFE0023184680BD00BF35
:1014CC000020024080B582B000AF7860124B1A68E1
:1014DC00124B1B7819464FF47A73B3FBF1F3B2FB42
:1014EC00F3F3184600F03BF90346002B01D001231F
:1014FC000EE07B680F2B0AD8002279684FF0FF3082
:10150C0000F003F9064A7B681360002300E0012316
:10151C0018460837BD4680BD40000020480000201A
:10152C004400002080B400AF054B1B781A46054BD5
:10153C001B681344034A136000BFBD4680BC704750
:10154C0048000020CC01002080B400AF024B1B6887
:10155C001846BD4680BC7047CC01002080B485B0D5
:10156C0000AF78607B6803F00703FB600C4BDB6813
:10157C00BB60BA684FF6FF031340BB60FB681A02EE
:10158C00BB68134343F0BF6343F40033BB60044AAE
:10159C00BB68D36000BF1437BD4680BC704700BF2A
:1015AC0000ED00E080B400AF044BDB681B0A03F0D5
:1015BC0007031846BD4680BC704700BF00ED00E035
:1015CC0080B483B000AF0346FB7197F90730002B52
:1015DC000BDBFB7903F01F02064997F907305B0917
:1015EC00012000FA02F241F8232000BF0C37BD465F
:1015FC0080BC704700E100E080B483B000AF0346CC
:10160C003960FB7197F90730002B0ADB3B68DAB2C3
:10161C000C4997F907301201D2B20B4483F800231E
:10162C000AE03B68DAB20849FB7903F00F03043B8C
:10163C001201D2B20B441A7600BF0C37BD4680BCE7
:10164C00704700BF00E100E000ED00E080B489B01D
:10165C0000AFF860B9607A60FB6803F00703FB61C8
:10166C00FB69C3F10703042B28BF0423BB61FB698F
:10167C000433062B02D9FB69033B00E000237B619A
:10168C004FF0FF32BB6902FA03F3DA43BB681A402E
:10169C007B699A404FF0FF317B6901FA03F3D94320
:1016AC007B680B40134318462437BD4680BC7047FB
:1016BC0080B582B000AF78607B68013BB3F1807F6E
:1016CC0001D301230FE00A4A7B68013B53600F21D1
:1016DC004FF0FF30FFF790FF054B00229A60044B50
:1016EC0007221A60002318460837BD4680BD00BF8C
:1016FC0010E000E080B582B000AF78607868FFF74A
:10170C002DFF00BF0837BD4680BD80B586B000AF49
:10171C000346B9607A60FB7300237B61FFF742FFDD
:10172C0078617A68B9687869FFF790FF024697F993
:10173C000F3011461846FFF75FFF00BF1837BD4644
:10174C0080BD80B582B000AF0346FB7197F90730BE
:10175C001846FFF735FF00BF0837BD4680BD80B582
:10176C0082B000AF78607868FFF7A2FF0346184696
:10177C000837BD4680BD80B485B000AF78600023CB
:10178C00FB737B6893F82130DBB2022B08D07B68AB
:10179C0004229A637B68002283F82020012320E036
:1017AC007B681B681A687B681B6822F00E021A6043
:1017BC007B681B681A687B681B6822F001021A6040
:1017CC007B681A6C7B68DB6B012101FA02F25A60B0
:1017DC007B68012283F821207B68002283F820207B
:1017EC00FB7B18461437BD4680BC704780B584B06F
:1017FC0000AF78600023FB737B6893F82130DBB279
:10180C00022B05D07B6804229A630123FB7351E001
:10181C007B681B681A687B681B6822F00E021A60D2
:10182C007B681B681A687B681B6822F001021A60CF
:10183C007B681B68224A934229D07B681B68214A2B
:10184C00934222D07B681B681F4A93421AD07B6854
:10185C001B681E4A934212D07B681B681C4A934239
:10186C000AD07B681B681B4A934202D14FF4801349
:10187C000EE04FF080730BE04FF4803308E04FF430
:10188C00805305E04FF4807302E0102300E0012345
:10189C00114A53607B68012283F821207B68002267
:1018AC0083F820207B685B6B002B03D07B685B6B21
:1018BC0078689847FB7B18461037BD4680BD00BF43
:1018CC00080002401C00024030000240440002406C
:1018DC00580002406C0002400000024080B48BB003
:1018EC0000AF7860396000237B6200233B6261E1CA
:1018FC0001227B6A02FA03F3FB613B681B68FA69FD
:10190C001340BB61BA69FB699A4240F050813B6855
:10191C005B68974A93425ED0954A934275D8954A34
:10192C00934258D0934A93426FD8934A934252D0E1
:10193C00914A934269D8914A93424CD08F4A934230
:10194C0063D88F4A934246D08D4A93425DD8122B6E
:10195C002AD8122B59D801A252F823F0E319000807
:10196C00BD190008CF190008111A0008171A000831
:10197C00171A0008171A0008171A0008171A000877
:10198C00171A0008171A0008171A0008171A000867
:10199C00171A0008171A0008171A0008171A000857
:1019AC00C5190008D9190008764A934213D02CE0C7
:1019BC003B68DB683B6229E03B68DB6804333B62D5
:1019CC0024E03B68DB6808333B621FE03B68DB6864
:1019DC000C333B621AE03B689B68002B02D104235A
:1019EC003B6213E03B689B68012B05D108233B62EB
:1019FC007B68FA691A6109E008233B627B68FA6923
:101A0C005A6103E000233B6200E000BFBB69FF2B7F
:101A1C0001D87B6801E07B6804337B61BB69FF2BD9
:101A2C0002D87B6A9B0002E07B6A083B9B003B610F
:101A3C007B691A680F213B6901FA03F3DB431A40F7
:101A4C00396A3B6901FA03F31A437B691A603B68F4
:101A5C005B6803F08053002B00F0A9804A4B9B6914
:101A6C00494A43F001039361474B9B6903F001031F
:101A7C00BB60BB68454A7B6A9B08023352F8233033
:101A8C00FB607B6A03F003039B000F2202FA03F353
:101A9C00DB43FA681340FB607B683D4A93420DD0F0
:101AAC007B683C4A934207D07B683B4A934201D106
:101ABC00022304E0032302E0012300E000237A6AFE
:101ACC0002F0030292009340FA681343FB602F4923
:101ADC007B6A9B080233FA6841F823203B685B68F9
:101AEC0003F48013002B06D02C4B9A682B49BB694E
:101AFC0013438B6006E0294B9A68BB69DB4327498B
:101B0C0013408B603B685B6803F40013002B06D01A
:101B1C00224BDA682149BB691343CB6006E01F4BAB
:101B2C00DA68BB69DB431D491340CB603B685B68DB
:101B3C0003F40033002B06D0184B5A681749BB69C5
:101B4C0013434B6006E0154B5A68BB69DB431349E2
:101B5C0013404B603B685B6803F48033002B1FD051
:101B6C000E4B1A680D49BB6913430B601FE000BF95
:101B7C000000321000003110000022100000211073
:101B8C000000121000001110001002400000014073
:101B9C0000080140000C014000100140000401400D
:101BAC000B4B1A68BB69DB43094913400B607B6A1A
:101BBC0001337B623B681A687B6A22FA03F3002BC1
:101BCC007FF496AE00BF00BF2C37BD4680BC70477B
:101BDC000004014080B485B000AF78600B467B8078
:101BEC007B689A687B881340002B02D00123FB731F
:101BFC0001E00023FB73FB7B18461437BD4680BC09
:101C0C00704780B483B000AF78600B467B8013467E
:101C1C007B707B78002B03D07A887B681A6103E099
:101C2C007B881A047B681A6100BF0C37BD4680BCE8
:101C3C00704780B485B000AF78600B467B807B68C2
:101C4C00DB68FB607A88FB6813401A04FB68D94395
:101C5C007B880B401A437B681A6100BF1437BD4662
:101C6C0080BC704780B584B000AF78607B68002B77
:101C7C0001D101232BE17B6893F83D30DBB2002BC3
:101C8C0006D17B68002283F83C207868FFF7D0FAF5
:101C9C007B68242283F83D207B681B681A687B686C
:101CAC001B6822F001021A607B681B681A687B684B
:101CBC001B6842F400421A607B681B681A687B68D8
:101CCC001B6822F400421A6001F032F8F8607B685D
:101CDC005B68814A934207D8FB68804A934294BF61
:101CEC0001230023DBB206E0FB687D4A934294BFDC
:101CFC0001230023DBB2002B01D00123E7E0FB68BA
:101D0C00784AA2FB03239B0CBB607B681B685B6857
:101D1C0023F03F017B681B68BA680A435A607B68F2
:101D2C001B681B6A23F03F017B685B686A4A93421D
:101D3C0002D8BB68013309E0BB684FF4967202FB12
:101D4C0003F3694AA2FB03239B0901337A681268E7
:101D5C000B4313627B681B68DB6923F44F4222F050
:101D6C00FF027B685B685C498B4219D8FB68591E83
:101D7C007B685B685B00B1FBF3F3591C40F6FC73AA
:101D8C000B40002B0AD0FB68591E7B685B685B001C
:101D9C00B1FBF3F30133C3F30B0351E004234FE026
:101DAC007B689B68002B11D1FB68581E7B685968B7
:101DBC000B465B000B44B0FBF3F30133C3F30B0393
:101DCC00002B0CBF01230023DBB212E0FB68581E72
:101DDC007B6859680B469B000B4499000B44B0FB85
:101DEC00F3F30133C3F30B03002B0CBF01230023CC
:101DFC00DBB2002B01D0012322E07B689B68002B17
:101E0C000ED1FB68581E7B6859680B465B000B446F
:101E1C00B0FBF3F30133C3F30B0343F400430FE0C4
:101E2C00FB68581E7B6859680B469B000B44990055
:101E3C000B44B0FBF3F30133C3F30B0343F4404304
:101E4C00796809681343CB617B681B681B6823F0B6
:101E5C00C0017B68DA697B681B6A1A437B681B6864
:101E6C000A431A607B681B689B6823F4034323F0C6
:101E7C00FF037A6811697A68D26811437A6812682C
:101E8C000B4393607B681B68DB6823F0FF017B6866
:101E9C005A697B689B691A437B681B680A43DA6042
:101EAC007B681B681A687B681B6842F001021A6029
:101EBC007B6800221A647B68202283F83D207B68B3
:101ECC0000221A637B68002283F83E200023184608
:101EDC001037BD4680BD00BFA08601007F841E0068
:101EEC00FF083D0083DE1B43D34D621080B588B0E4
:101EFC0002AFF8607A601A460B467B8113463B8131
:101F0C00FFF722FB7861FB6893F83D30DBB2202BA6
:101F1C0040F0E0807B690093192301227049F86836
:101F2C0000F064F90346002B01D00223D3E0FB68D8
:101F3C0093F83C30012B01D10223CCE0FB68012249
:101F4C0083F83C20FB681B681B6803F00103012B22
:101F5C0007D0FB681B681A68FB681B6842F001021B
:101F6C001A60FB681B681A68FB681B6822F4006225
:101F7C001A60FB68212283F83D20FB68102283F84D
:101F8C003E20FB6800221A64FB687A685A62FB6880
:101F9C003A895A85FB685B8D9AB2FB681A85FB6897
:101FAC00504ADA6279897B693A6AF86800F09CF8E1
:101FBC000346002B01D001238DE000233B61FB681D
:101FCC001B685B693B61FB681B689B693B613B69F8
:101FDC0066E07A69396AF86800F022FA0346002B49
:101FEC000DD0FB681B6C042B07D1FB681B681A68AF
:101FFC00FB681B6842F400721A6001236BE0FB68FB
:10200C005B6A1A78FB681B681A61FB685B6A5A1C6E
:10201C00FB685A62FB685B8D9BB2013B9AB2FB6812
:10202C005A85FB681B8D013B9AB2FB681A85FB68CD
:10203C001B685B6903F00403042B1BD1FB681B8D2D
:10204C00002B17D0FB685B6A1A78FB681B681A6157
:10205C00FB685B6A5A1CFB685A62FB685B8D9BB21F
:10206C00013B9AB2FB685A85FB681B8D013B9AB207
:10207C00FB681A857A69396AF86800F019FA034620
:10208C00002B0DD0FB681B6C042B07D1FB681B6865
:10209C001A68FB681B6842F400721A6001231AE08C
:1020AC00FB681B8D002B94D1FB681B681A68FB68BE
:1020BC001B6842F400721A60FB68202283F83D20F2
:1020CC00FB68002283F83E20FB68002283F83C204A
:1020DC00002300E0022318461837BD4680BD00BF20
:1020EC00020010000000FFFF80B588B002AFF8605E
:1020FC007A603B600B467B81FB68DB6A7B617B69AA
:10210C00082B06D07B69012B03D07B6913F5803F2C
:10211C0008D1FB681B681A68FB681B6842F4807264
:10212C001A600BE0FB681B6B122B07D1FB681B685A
:10213C001A68FB681B6842F480721A603B68009353
:10214C007B6800224FF00111F86800F04FF803464D
:10215C00002B0DD0FB681B681B6803F48073B3F570
:10216C00807F03D1FB684FF400721A64032335E0BF
:10217C00FB681B69B3F5804F08D17B89DBB21A462B
:10218C00FB681B6802F0FE021A611BE07B89DB1105
:10219C00DBB203F00603DBB263F00F03DAB2FB68C9
:1021AC001B681A613B687A680E49F86800F098F869
:1021BC000346002B01D0012310E07B89DAB2FB68C7
:1021CC001B681A613B687A680749F86800F088F860
:1021DC000346002B01D0012300E0002318461837DA
:1021EC00BD4680BD080001000200010080B584B02E
:1021FC0000AFF860B9603B601346FB7148E03B6888
:10220C00B3F1FF3F44D0FFF79FF90246BB69D31AE5
:10221C003A689A4202D33B68002B39D1BB681B0C3D
:10222C00DBB2012B0DD1FB681B685B69DA43BB6821
:10223C0013409BB2002B0CBF01230023DBB21A46C8
:10224C000CE0FB681B689B69DA43BB6813409BB2CC
:10225C00002B0CBF01230023DBB21A46FB799A42F8
:10226C0016D1FB6800221A63FB68202283F83D20FC
:10227C00FB68002283F83E20FB681B6C43F02002B5
:10228C00FB681A64FB68002283F83C20012323E0DE
:10229C00BB681B0CDBB2012B0DD1FB681B685B69A7
:1022AC00DA43BB6813409BB2002B0CBF0123002305
:1022BC00DBB21A460CE0FB681B689B69DA43BB680F
:1022CC0013409BB2002B0CBF01230023DBB21A4638
:1022DC00FB799A4293D0002318461037BD4680BD37
:1022EC0080B584B000AFF860B9607A603B6071E093
:1022FC00FB681B685B6903F48063B3F5806F23D1C3
:10230C00FB681B681A68FB681B6842F400721A6051
:10231C00FB681B686FF480625A61FB6800221A63C9
:10232C00FB68202283F83D20FB68002283F83E20C6
:10233C00FB681B6C43F00402FB681A64FB68002208
:10234C0083F83C20012367E07B68B3F1FF3F41D069
:10235C00FFF7FAF802463B68D31A7A689A4202D31E
:10236C007B68002B36D1BB681B0CDBB2012B0CD16C
:10237C00FB681B685B69DA43BB6813409BB2002B9C
:10238C0014BF01230023DBB20BE0FB681B689B69C5
:10239C00DA43BB6813409BB2002B14BF012300230C
:1023AC00DBB2002B16D0FB6800221A63FB682022DC
:1023BC0083F83D20FB68002283F83E20FB681B6CF1
:1023CC0043F02002FB681A64FB68002283F83C206F
:1023DC00012321E0BB681B0CDBB2012B0CD1FB6889
:1023EC001B685B69DA43BB6813409BB2002B14BFBC
:1023FC0001230023DBB20BE0FB681B689B69DA430B
:10240C00BB6813409BB2002B14BF01230023DBB22B
:10241C00002B7FF46DAF002318461037BD4680BDEE
:10242C0080B584B000AFF860B9607A6034E0F868C9
:10243C0000F086F80346002B01D0012334E0BB6882
:10244C00B3F1FF3F28D0FFF77FF802467B68D31A21
:10245C00BA689A4202D3BB68002B1DD1FB681B687B
:10246C005B6903F08003802B16D0FB6800221A6393
:10247C00FB68202283F83D20FB68002283F83E2075
:10248C00FB681B6C43F02002FB681A64FB6800229B
:10249C0083F83C20012307E0FB681B685B6903F0B1
:1024AC008003802BC3D1002318461037BD4680BD56
:1024BC0080B584B000AFF860B9607A6034E0F86839
:1024CC0000F03EF80346002B01D0012334E0BB683A
:1024DC00B3F1FF3F28D0FFF737F802467B68D31AD9
:1024EC00BA689A4202D3BB68002B1DD1FB681B68EB
:1024FC005B6903F00403042B16D0FB6800221A63FB
:10250C00FB68202283F83D20FB68002283F83E20E4
:10251C00FB681B6C43F02002FB681A64FB6800220A
:10252C0083F83C20012307E0FB681B685B6903F020
:10253C000403042BC3D1002318461037BD4680BDBD
:10254C0080B483B000AF78607B681B685B6903F470
:10255C008063B3F5806F1BD17B681B686FF480625E
:10256C005A617B6800221A637B68202283F83D2025
:10257C007B68002283F83E207B681B6C43F00402CE
:10258C007B681A647B68002283F83C20012300E0FE
:10259C00002318460C37BD4680BC704780B586B00A
:1025AC0000AF78607B68002B01D1012372E27B685D
:1025BC001B6803F00103002B00F08780924B5B68D3
:1025CC0003F00C03042B0CD08F4B5B6803F00C0353
:1025DC00082B12D18C4B5B6803F48033B3F5803F2E
:1025EC000BD1894B1B6803F40033002B6CD07B6838
:1025FC005B68002B68D101234CE27B685B68B3F508
:10260C00803F06D1804B1B687F4A43F480331360B4
:10261C002EE07B685B68002B0CD17B4B1B687A4AE5
:10262C0023F480331360784B1B68774A23F48023A0
:10263C0013601DE07B685B68B3F5A02F0CD1724B67
:10264C001B68714A43F4802313606F4B1B686E4AFE
:10265C0043F4803313600BE06B4B1B686A4A23F422
:10266C0080331360684B1B68674A23F48023136024
:10267C007B685B68002B13D0FEF766FF386108E0BF
:10268C00FEF762FF02463B69D31A642B01D9032380
:10269C0000E25D4B1B6803F40033002BF0D014E018
:1026AC00FEF752FF386108E0FEF74EFF02463B6929
:1026BC00D31A642B01D90323ECE1534B1B6803F4AD
:1026CC000033002BF0D100E000BF7B681B6803F0E7
:1026DC000203002B63D04C4B5B6803F00C03002B04
:1026EC000BD0494B5B6803F00C03082B1CD1464BF9
:1026FC005B6803F48033002B16D1434B1B6803F04B
:10270C000203002B05D07B681B69012B01D0012330
:10271C00C0E13D4B1B6823F0F8027B685B69DB0072
:10272C00394913430B603AE07B681B69002B20D0BE
:10273C00364B01221A60FEF707FF386108E0FEF7FE
:10274C0003FF02463B69D31A022B01D90323A1E1F3
:10275C002D4B1B6803F00203002BF0D02A4B1B6897
:10276C0023F0F8027B685B69DB00274913430B609D
:10277C0015E0264B00221A60FEF7E6FE386108E0F1
:10278C00FEF7E2FE02463B69D31A022B01D9032362
:10279C0080E11D4B1B6803F00203002BF0D17B681A
:1027AC001B6803F00803002B3AD07B689B69002B55
:1027BC0019D0174B01221A60FEF7C6FE386108E0EB
:1027CC00FEF7C2FE02463B69D31A022B01D9032342
:1027DC0060E10D4B5B6A03F00203002BF0D001208B
:1027EC0000F0CEFA1CE00A4B00221A60FEF7ACFE99
:1027FC0038610FE0FEF7A8FE02463B69D31A022BA4
:10280C0008D9032346E100BF0010024000004242F9
:10281C0080044242924B5B6A03F00203002BE9D125
:10282C007B681B6803F00403002B00F0A6800023D8
:10283C00FB758B4BDB6903F08053002B0DD1884B60
:10284C00DB69874A43F08053D361854BDB6903F026
:10285C008053BB60BB680123FB75824B1B6803F480
:10286C008073002B18D17F4B1B687E4A43F4807316
:10287C001360FEF769FE386108E0FEF765FE02465C
:10288C003B69D31A642B01D9032303E1754B1B68F5
:10289C0003F48073002BF0D07B68DB68012B06D12E
:1028AC006F4B1B6A6E4A43F0010313622DE07B6889
:1028BC00DB68002B0CD16A4B1B6A694A23F00103BD
:1028CC001362674B1B6A664A23F0040313621CE015
:1028DC007B68DB68052B0CD1614B1B6A604A43F0AB
:1028EC00040313625E4B1B6A5D4A43F001031362DF
:1028FC000BE05B4B1B6A5A4A23F001031362584BE3
:10290C001B6A574A23F0040313627B68DB68002BB5
:10291C0015D0FEF719FE38610AE0FEF715FE0246E7
:10292C003B69D31A41F28832934201D90323B1E0B7
:10293C004B4B1B6A03F00203002BEED014E0FEF7A6
:10294C0003FE38610AE0FEF7FFFD02463B69D31A2D
:10295C0041F28832934201D903239BE0404B1B6A1E
:10296C0003F00203002BEED1FB7D012B05D13C4B78
:10297C00DB693B4A23F08053D3617B68DB69002B16
:10298C0000F08780364B5B6803F00C03082B61D09A
:10299C007B68DB69022B46D1334B00221A60FEF7B1
:1029AC00D3FD386108E0FEF7CFFD02463B69D31A30
:1029BC00022B01D903236DE0294B1B6803F0007334
:1029CC00002BF0D17B681B6AB3F5803F08D1244BF8
:1029DC005B6823F400327B689B68214913434B608E
:1029EC001F4B5B6823F474127B68196A7B685B6A03
:1029FC000B431B4913434B601B4B01221A60FEF720
:102A0C00A3FD386108E0FEF79FFD02463B69D31A2F
:102A1C00022B01D903233DE0114B1B6803F000731B
:102A2C00002BF0D035E0104B00221A60FEF78CFD25
:102A3C00386108E0FEF788FD02463B69D31A022B89
:102A4C0001D9032326E0064B1B6803F00073002B0F
:102A5C00F0D11EE07B68DB69012B07D1012319E063
:102A6C000010024000700040600042420B4B5B685B
:102A7C00FB60FB6803F480327B681B6A9A4206D1C8
:102A8C00FB6803F470127B685B6A9A4201D00123E5
:102A9C0000E0002318461837BD4680BD00100240E8
:102AAC0080B584B000AF786039607B68002B01D1B1
:102ABC000123D0E06A4B1B6803F007033A689A4283
:102ACC0010D9674B1B6823F0070265493B68134319
:102ADC000B60634B1B6803F007033A689A4201D002
:102AEC000123B8E07B681B6803F00203002B20D0A5
:102AFC007B681B6803F00403002B05D0594B5B6803
:102B0C00584A43F4E06353607B681B6803F0080386
:102B1C00002B05D0534B5B68524A43F4605353600F
:102B2C00504B5B6823F0F0027B689B684D49134364
:102B3C004B607B681B6803F00103002B40D07B6863
:102B4C005B68012B07D1474B1B6803F40033002B48
:102B5C0015D101237FE07B685B68022B07D1414BC9
:102B6C001B6803F00073002B09D1012373E03D4B6C
:102B7C001B6803F00203002B01D101236BE0394BDE
:102B8C005B6823F003027B685B68364913434B6038
:102B9C00FEF7DAFCF8600AE0FEF7D6FC0246FB68AA
:102BAC00D31A41F28832934201D9032353E02D4BBF
:102BBC005B6803F00C027B685B689B009A42EBD16C
:102BCC00274B1B6803F007033A689A4210D2244B38
:102BDC001B6823F0070222493B6813430B60204B10
:102BEC001B6803F007033A689A4201D0012332E0D4
:102BFC007B681B6803F00403002B08D0194B5B683F
:102C0C0023F4E0627B68DB68164913434B607B68F6
:102C1C001B6803F00803002B09D0124B5B6823F4EC
:102C2C0060527B681B69DB000E4913434B6000F05C
:102C3C0021F802460B4B5B681B0903F00F030A4992
:102C4C00CB5C22FA03F3094A1360094B1B68184644
:102C5C00FEF738FC002318461037BD4680BD00BF78
:102C6C0000200240001002405440000840000020A8
:102C7C004400002080B487B000AF0023FB60002329
:102C8C00BB6000237B6100237B6000233B611E4BF8
:102C9C005B68FB60FB6803F00C03042B02D0082B71
:102CAC0003D027E0194B3B6127E0FB689B0C03F03A
:102CBC000F03174AD35C7B60FB6803F48033002B53
:102CCC0010D0114B5B685B0C03F00103114AD35C11
:102CDC00BB607B680D4A03FB02F2BB68B2FBF3F3EB
:102CEC007B6104E07B680C4A02FB03F37B617B692C
:102CFC003B6102E0054B3B6100BF3B6918461C374A
:102D0C00BD4680BC704700BF0010024000127A0024
:102D1C006C4000087C40000800093D0080B400AF06
:102D2C00024B1B681846BD4680BC70474000002013
:102D3C0080B500AFFFF7F2FF0246054B5B681B0A3C
:102D4C0003F007030349CB5C22FA03F3184680BD5A
:102D5C00001002406440000880B500AFFFF7DEFFB2
:102D6C000246054B5B68DB0A03F007030349CB5CA7
:102D7C0022FA03F3184680BD00100240644000089C
:102D8C0080B485B000AF78600A4B1B680A4AA2FB7E
:102D9C0003235B0A7A6802FB03F3FB6000BFFB684A
:102DAC005A1EFA60002BF9D100BF00BF1437BD4684
:102DBC0080BC704740000020D34D621080B582B0BB
:102DCC0000AF78607B68002B01D1012341E07B6868
:102DDC0093F83D30DBB2002B06D17B68002283F8E0
:102DEC003C207868FEF776FA7B68022283F83D2057
:102DFC007B681A687B6804331946104600F056FA53
:102E0C007B68012283F846207B68012283F83E20F0
:102E1C007B68012283F83F207B68012283F84020E5
:102E2C007B68012283F841207B68012283F84220D1
:102E3C007B68012283F843207B68012283F84420BD
:102E4C007B68012283F845207B68012283F83D20B2
:102E5C00002318460837BD4680BD000080B485B0FD
:102E6C0000AF78607B6893F83D30DBB2012B01D06A
:102E7C00012335E07B68022283F83D207B681B68C8
:102E8C00DA687B681B6842F00102DA607B681B68B9
:102E9C00164A934209D07B681B68B3F1804F04D06B
:102EAC007B681B68124A934211D17B681B689B6834
:102EBC0003F00703FB60FB68062B10D07B681B68D4
:102ECC001A687B681B6842F001021A6007E07B6895
:102EDC001B681A687B681B6842F001021A600023A9
:102EEC0018461437BD4680BC704700BF002C01400B
:102EFC000004004080B584B000AF78607B681B682C
:102F0C00DB68FB607B681B681B69BB60BB6803F0FC
:102F1C000203002B20D0FB6803F00203002B1BD014
:102F2C007B681B686FF002021A617B6801221A77BA
:102F3C007B681B689B6903F00303002B03D0786844
:102F4C0000F098F905E0786800F08BF9786800F0EB
:102F5C009AF97B6800221A77BB6803F00403002BF4
:102F6C0020D0FB6803F00403002B1BD07B681B688C
:102F7C006FF004021A617B6802221A777B681B6867
:102F8C009B6903F44073002B03D0786800F072F94E
:102F9C0005E0786800F065F9786800F074F97B68F2
:102FAC0000221A77BB6803F00803002B20D0FB68C3
:102FBC0003F00803002B1BD07B681B686FF0080222
:102FCC001A617B6804221A777B681B68DB6903F043
:102FDC000303002B03D0786800F04CF905E0786807
:102FEC0000F03FF9786800F04EF97B6800221A7700
:102FFC00BB6803F01003002B20D0FB6803F0100318
:10300C00002B1BD07B681B686FF010021A617B6869
:10301C0008221A777B681B68DB6903F44073002B6A
:10302C0003D0786800F026F905E0786800F019F90B
:10303C00786800F028F97B6800221A77BB6803F0E7
:10304C000103002B0CD0FB6803F00103002B07D00D
:10305C007B681B686FF001021A617868FDF70AFF44
:10306C00BB6803F08003002B0CD0FB6803F08003DB
:10307C00002B07D07B681B686FF080021A617868A0
:10308C0000F06FFABB6803F04003002B0CD0FB6818
:10309C0003F04003002B07D07B681B686FF04002E5
:1030AC001A61786800F0F8F8BB6803F02003002B75
:1030BC000CD0FB6803F02003002B07D07B681B6847
:1030CC006FF020021A61786800F042FA00BF1037E6
:1030DC00BD4680BD80B584B000AF786039600023F8
:1030EC00FB737B6893F83C30012B01D10223B4E0D5
:1030FC007B68012283F83C207B68022283F83D2008
:10310C007B681B689B68BB60BB6823F07703BB6064
:10311C00BB6823F47F43BB607B681B68BA689A600A
:10312C003B681B68B3F5005F3ED0B3F5005F00F25F
:10313C008780B3F5805F00F08680B3F5805F7FD821
:10314C00702B1AD0702B7BD8602B50D0602B77D87B
:10315C00502B3CD0502B73D8402B58D0402B6FD8D1
:10316C00302B64D0302B6BD8202B60D0202B67D821
:10317C00002B5CD0102B5AD062E07B6818683B683F
:10318C0099683B685A683B68DB6800F06AF97B68B1
:10319C001B689B68BB60BB6843F07703BB607B68B4
:1031AC001B68BA689A604FE07B6818683B6899683E
:1031BC003B685A683B68DB6800F053F97B681B6816
:1031CC009A687B681B6842F480429A603CE07B689A
:1031DC0018683B6859683B68DB681A4600F0CAF807
:1031EC007B681B685021184600F021F92CE07B68A5
:1031FC0018683B6859683B68DB681A4600F0E8F8C9
:10320C007B681B686021184600F011F91CE07B6894
:10321C0018683B6859683B68DB681A4600F0AAF8E6
:10322C007B681B684021184600F001F90CE07B68B4
:10323C001A683B681B681946104600F0F8F803E062
:10324C000123FB7300E000BF7B68012283F83D2063
:10325C007B68002283F83C20FB7B18461037BD4668
:10326C0080BD80B483B000AF786000BF0C37BD4622
:10327C0080BC704780B483B000AF786000BF0C375F
:10328C00BD4680BC704780B483B000AF786000BF8F
:10329C000C37BD4680BC704780B483B000AF7860FB
:1032AC0000BF0C37BD4680BC7047000080B485B0B1
:1032BC0000AF786039607B681B68FB607B682B4AC9
:1032CC00934207D07B68B3F1804F03D07B68284AC8
:1032DC00934208D1FB6823F07003FB603B685B688A
:1032EC00FA681343FB607B68204A934207D07B68E3
:1032FC00B3F1804F03D07B681D4A934208D1FB6821
:10330C0023F44073FB603B68DB68FA681343FB6093
:10331C00FB6823F080023B685B691343FB607B68AE
:10332C00FA681A603B689A687B68DA623B681A68CC
:10333C007B689A627B680D4A934203D13B681A6999
:10334C007B681A637B6801225A617B681B6903F0F6
:10335C000103002B05D07B681B6923F001027B68FD
:10336C001A6100BF1437BD4680BC7047002C014069
:10337C000004004080B487B000AFF860B9607A6098
:10338C00FB681B6A7B61FB681B6A23F00102FB680C
:10339C001A62FB689B693B613B6923F0F0033B615C
:1033AC007B681B013A6913433B617B6923F00A0379
:1033BC007B617A69BB6813437B61FB683A699A61EC
:1033CC00FB687A691A6200BF1C37BD4680BC704727
:1033DC0080B487B000AFF860B9607A60FB681B6A94
:1033EC007B61FB681B6A23F01002FB681A62FB68A6
:1033FC009B693B613B6923F470433B617B681B0316
:10340C003A6913433B617B6923F0A0037B61BB6882
:10341C001B017A6913437B61FB683A699A61FB680B
:10342C007A691A6200BF1C37BD4680BC704780B4F5
:10343C0085B000AF786039607B689B68FB60FB6887
:10344C0023F07003FB603A68FB68134343F00703F7
:10345C00FB607B68FA689A6000BF1437BD4680BC7D
:10346C00704780B487B000AFF860B9607A603B6099
:10347C00FB689B687B617B6923F47F437B613B68C2
:10348C001A027B681A43BB6813437A6913437B6146
:10349C00FB687A699A6000BF1C37BD4680BC7047D8
:1034AC0080B485B000AF786039607B6893F83C30AD
:1034BC00012B01D1022341E07B68012283F83C20DF
:1034CC007B68022283F83D207B681B685B68FB608D
:1034DC007B681B689B68BB60FB6823F07003FB6018
:1034EC003B681B68FA681343FB607B681B68FA68CF
:1034FC005A607B681B68144A934209D07B681B682E
:10350C00B3F1804F04D07B681B68104A93420CD1F6
:10351C00BB6823F08003BB603B685B68BA681343ED
:10352C00BB607B681B68BA689A607B68012283F871
:10353C003D207B68002283F83C200023184614377A
:10354C00BD4680BC704700BF002C01400004004009
:10355C0080B483B000AF786000BF0C37BD4680BC30
:10356C00704780B483B000AF786000BF0C37BD46A5
:10357C0080BC704780B582B000AF78607B68002B50
:10358C0001D1012342E07B6893F84130DBB2002B80
:10359C0006D17B68002283F840207868FDF7BEFED8
:1035AC007B68242283F841207B681B68DA687B687F
:1035BC001B6822F40052DA60786800F07FFC7B68AC
:1035CC001B681A697B681B6822F490421A617B683D
:1035DC001B685A697B681B6822F02A025A617B6857
:1035EC001B68DA687B681B6842F40052DA607B68FF
:1035FC0000225A647B68202283F841207B682022B9
:10360C0083F842207B6800225A630023184608374F
:10361C00BD4680BD80B5BAB000AF78607B681B68D2
:10362C001B68C7F8E4307B681B68DB68C7F8E030C0
:10363C007B681B685B69C7F8DC300023C7F8D8309F
:10364C000023C7F8D430D7F8E43003F00F03C7F8E1
:10365C00D830D7F8D830002B0FD1D7F8E43003F09E
:10366C002003002B09D0D7F8E03003F02003002B07
:10367C0003D0786800F063FB5BE2D7F8D830002BFE
:10368C0000F0DE80D7F8DC3003F00103002B06D10C
:10369C00D7F8E03003F49073002B00F0D180D7F80A
:1036AC00E43003F00103002B0BD0D7F8E03003F427
:1036BC008073002B05D07B685B6C43F001027B6848
:1036CC005A64D7F8E43003F00403002B0BD0D7F87E
:1036DC00DC3003F00103002B05D07B685B6C43F0FE
:1036EC0002027B685A64D7F8E43003F00203002B23
:1036FC000BD0D7F8DC3003F00103002B05D07B682E
:10370C005B6C43F004027B685A64D7F8E43003F036
:10371C000803002B11D0D7F8E03003F02003002B66
:10372C0005D1D7F8DC3003F00103002B05D07B6802
:10373C005B6C43F008027B685A647B685B6C002B03
:10374C0000F0F281D7F8E43003F02003002B08D00E
:10375C00D7F8E03003F02003002B02D0786800F09B
:10376C00EEFA7B681B685B6903F04003002B14BF07
:10377C0001230023DBB2C7F8D4307B685B6C03F009
:10378C000803002B03D1D7F8D430002B4FD0786826
:10379C0000F0F8F97B681B685B6903F04003002BB1
:1037AC0041D07B681B681433C7F89C30D7F89C3029
:1037BC0053E8003FC7F89830D7F8983023F040030F
:1037CC00C7F8D0307B681B681433D7F8D020C7F803
:1037DC00A820C7F8A430D7F8A410D7F8A82041E83F
:1037EC000023C7F8A030D7F8A030002BD9D17B68C4
:1037FC00DB6B002B13D07B68DB6B7E4A5A637B68D8
:10380C00DB6B1846FDF7F2FF0346002B16D07B68E6
:10381C00DB6B5B6B7A68D26B104698470EE078686E
:10382C0000F09CF90AE0786800F098F906E07868F6
:10383C0000F094F97B6800225A6475E100BF73E1D3
:10384C007B681B6B012B40F04F81D7F8E43003F001
:10385C001003002B00F04881D7F8E03003F0100380
:10386C00002B00F041810023BB607B681B681B6848
:10387C00BB607B681B685B68BB60BB687B681B6854
:10388C005B6903F04003002B00F0B6807B68DB6BB8
:10389C001B685B68A7F8BE30B7F8BE30002B00F091
:1038AC0045817B689B8DB7F8BE209A4280F03E81A3
:1038BC007B68B7F8BE20DA857B68DB6B9B69202BB5
:1038CC0000F088807B681B680C33C7F88830D7F809
:1038DC00883053E8003FC7F88430D7F8843023F49D
:1038EC008073C7F8B8307B681B680C33D7F8B820E6
:1038FC00C7F89420C7F89030D7F89010D7F89420D8
:10390C0041E80023C7F88C30D7F88C30002BD9D184
:10391C007B681B6814337B677B6F53E8003F3B6706
:10392C003B6F23F00103C7F8B4307B681B6814337A
:10393C00D7F8B420C7F88020FB67F96FD7F8802040
:10394C0041E80023BB67BB6F002BE1D17B681B6890
:10395C0014333B663B6E53E8003FFB65FB6D23F075
:10396C004003C7F8B0307B681B681433D7F8B0201D
:10397C00FA66BB66B96EFA6E41E800237B667B6E15
:10398C00002BE3D17B68202283F842207B68002245
:10399C001A637B681B680C33FB64FB6C53E8003FB9
:1039AC00BB64BB6C23F01003C7F8AC307B681B689E
:1039BC000C33D7F8AC20BA657B65796DBA6D41E8EC
:1039CC0000233B653B6D002BE3D17B68DB6B18461A
:1039DC00FDF7D1FE7B6802225A637B689A8D7B6867
:1039EC00DB8D9BB2D31A9BB21946786800F0BFF8F6
:1039FC009CE000BF553C00087B689A8D7B68DB8D92
:103A0C009BB2D31AA7F8CE307B68DB8D9BB2002B10
:103A1C0000F08E80B7F8CE30002B00F089807B68E8
:103A2C001B680C33BB63BB6B53E8003F7B637B6B46
:103A3C0023F49073C7F8C8307B681B680C33D7F835
:103A4C00C8207A643B64396C7A6C41E80023FB63D0
:103A5C00FB6B002BE3D17B681B6814337B627B6AA6
:103A6C0053E8003F3B623B6A23F00103C7F8C430C4
:103A7C007B681B681433D7F8C4203A63FB62F96A7D
:103A8C003A6B41E80023BB62BB6A002BE3D17B6835
:103A9C00202283F842207B6800221A637B681B6813
:103AAC000C333B613B6953E8003FFB60FB6823F040
:103ABC001003C7F8C0307B681B680C33D7F8C020E4
:103ACC00FA61BB61B969FA6941E800237B617B69E2
:103ADC00002BE3D17B6802225A63B7F8CE3019462B
:103AEC00786800F044F823E0D7F8E43003F0800362
:103AFC00002B09D0D7F8E03003F08003002B03D063
:103B0C00786800F0B5F814E0D7F8E43003F040031F
:103B1C00002B0ED0D7F8E03003F04003002B08D078
:103B2C00786800F0F4F804E000BF02E000BF00E0A9
:103B3C0000BFE837BD4680BD80B483B000AF78606D
:103B4C0000BF0C37BD4680BC704780B483B000AF5B
:103B5C00786000BF0C37BD4680BC704780B483B022
:103B6C0000AF786000BF0C37BD4680BC704780B496
:103B7C0083B000AF78600B467B8000BF0C37BD462E
:103B8C0080BC704780B495B000AF78607B681B68D0
:103B9C000C337B637B6B53E8003F3B633B6B23F441
:103BAC009073FB647B681B680C33FA6C3A64FB63A0
:103BBC00F96B3A6C41E80023BB63BB6B002BE5D17E
:103BCC007B681B6814333B623B6A53E8003FFB6124
:103BDC00FB6923F00103BB647B681B681433BA6C6C
:103BEC00FA62BB62B96AFA6A41E800237B627B6ABB
:103BFC00002BE5D17B681B6B012B19D17B681B68F3
:103C0C000C33FB60FB6853E8003FBB60BB6823F0E0
:103C1C0010037B647B681B680C337A6CBA617B6124
:103C2C007969BA6941E800233B613B69002BE5D116
:103C3C007B68202283F842207B6800221A6300BF35
:103C4C005437BD4680BC704780B584B000AF7860F7
:103C5C007B685B6AFB60FB680022DA85FB680022EC
:103C6C00DA84F868FFF77AFF00BF1037BD4680BDD5
:103C7C0080B485B000AF78607B6893F84130DBB2DC
:103C8C00212B3ED17B689B68B3F5805F14D17B6898
:103C9C001B69002B10D17B681B6AFB60FB681B88BF
:103CAC001A467B681B68C2F308025A607B681B6A61
:103CBC009A1C7B681A6208E07B681B6A591C7A683C
:103CCC0011621A787B681B685A607B68DB8C9BB22C
:103CDC00013B9BB27A681946D184002B0FD17B68CB
:103CEC001B68DA687B681B6822F08002DA607B68EC
:103CFC001B68DA687B681B6842F04002DA600023BC
:103D0C0000E0022318461437BD4680BC704780B5CE
:103D1C0082B000AF78607B681B68DA687B681B68D0
:103D2C0022F04002DA607B68202283F84120786818
:103D3C00FFF702FF002318460837BD4680BD80B54B
:103D4C008CB000AF78607B6893F84230DBB2222BEA
:103D5C0040F0AE807B689B68B3F5805F17D17B68C1
:103D6C001B69002B13D10023FB627B689B6ABB622F
:103D7C007B681B685B689BB2C3F308039AB2BB6A8F
:103D8C001A807B689B6A9A1C7B689A6226E07B6827
:103D9C009B6AFB620023BB627B689B68B3F5805F08
:103DAC0007D07B689B68002B0AD17B681B69002BB2
:103DBC0006D17B681B685B68DAB2FB6A1A7008E094
:103DCC007B681B685B68DBB203F07F03DAB2FB6ACB
:103DDC001A707B689B6A5A1C7B689A627B68DB8DC5
:103DEC009BB2013B9BB27A681946D185002B5DD101
:103DFC007B681B68DA687B681B6822F02002DA603B
:103E0C007B681B68DA687B681B6822F48072DA6056
:103E1C007B681B685A697B681B6822F001025A6137
:103E2C007B68202283F842207B6800225A637B68DF
:103E3C001B6B012B35D17B6800221A637B681B68D6
:103E4C000C337B617B6953E8003F3B613B6923F09A
:103E5C0010037B627B681B680C337A6A3A62FB61E5
:103E6C00F9693A6A41E80023BB61BB69002BE5D1D3
:103E7C007B681B681B6803F01003102B0AD100230E
:103E8C00FB607B681B681B68FB607B681B685B685E
:103E9C00FB60FB687B689B8D19467868FFF767FEB3
:103EAC0002E07868FFF751FE002302E0002300E0F7
:103EBC00022318463037BD4680BD000080B584B063
:103ECC0000AF78607B681B681B6923F440517B68EA
:103EDC00DA687B681B680A431A617B689A687B689E
:103EEC001B691A437B685B691343BB607B681B6867
:103EFC00DB6823F4B05323F00C037A681268B968BA
:103F0C000B43D3607B681B685B6923F440717B684F
:103F1C009A697B681B680A435A617B681B682C4A48
:103F2C00934203D1FEF718FFF86002E0FEF700FFA2
:103F3C00F860FA6813469B0013449A001A447B6895
:103F4C005B689B00B2FBF3F3224AA2FB03235B09E1
:103F5C001901FA6813469B0013449A001A447B68B3
:103F6C005B689B00B2FBF3F21A4BA3FB02035B09E9
:103F7C00642000FB03F3D31A1B013233154AA2FB56
:103F8C0003235B0903F0F0031944FA6813469B0002
:103F9C0013449A001A447B685B689B00B2FBF3F2F3
:103FAC000C4BA3FB02035B09642000FB03F3D31A45
:103FBC001B013233074AA2FB03235B0903F00F02F8
:103FCC007B681B680A449A6000BF1037BD4680BDF1
:103FDC00003801401F85EB5103460244934200D147
:103FEC00704703F8011BF9E770B500260C4D0D4C1A
:103FFC00641BA410A64209D100F01AF800260A4D41
:10400C000A4C641BA410A64205D170BD55F8043BA4
:10401C0098470136EEE755F8043B98470136F2E72E
:10402C008040000880400008804000088440000860
:10403C00F8B500BFF8BC08BC9E467047F8B500BF89
:08404C00F8BC08BC9E46704759
:104054000000000000000000010203040607080934
:104064000000000001020304020304050607080916
:0C4074000A0B0C0D0E0F101001020000D2
:044080003101000802
:044084000D01000822
:104088000100000001000000010000000100000024
:104098000100000001000000010000000100000014
:1040A800C8000000C8000000010000003200000045
:1040B800140000001E0000000A00000002000000BA
:0C40C80000127A0010000000010000004F
:040000050800145982
:00000001FF
